{
  "_format": "hh-sol-artifact-1",
  "contractName": "lottery",
  "sourceName": "contracts/Token.sol",
  "abi": [
    {
      "inputs": [],
      "stateMutability": "nonpayable",
      "type": "constructor"
    },
    {
      "inputs": [],
      "name": "enter",
      "outputs": [],
      "stateMutability": "payable",
      "type": "function"
    },
    {
      "inputs": [],
      "name": "getBalance",
      "outputs": [
        {
          "internalType": "uint256",
          "name": "",
          "type": "uint256"
        }
      ],
      "stateMutability": "view",
      "type": "function"
    },
    {
      "inputs": [],
      "name": "getPlayer",
      "outputs": [
        {
          "internalType": "address payable[]",
          "name": "",
          "type": "address[]"
        }
      ],
      "stateMutability": "view",
      "type": "function"
    },
    {
      "inputs": [],
      "name": "manager",
      "outputs": [
        {
          "internalType": "address",
          "name": "",
          "type": "address"
        }
      ],
      "stateMutability": "view",
      "type": "function"
    },
    {
      "inputs": [],
      "name": "pickWiner",
      "outputs": [],
      "stateMutability": "nonpayable",
      "type": "function"
    },
    {
      "inputs": [
        {
          "internalType": "uint256",
          "name": "",
          "type": "uint256"
        }
      ],
      "name": "players",
      "outputs": [
        {
          "internalType": "address payable",
          "name": "",
          "type": "address"
        }
      ],
      "stateMutability": "view",
      "type": "function"
    }
  ],
  "bytecode": "0x608060405234801561001057600080fd5b50336000806101000a81548173ffffffffffffffffffffffffffffffffffffffff021916908373ffffffffffffffffffffffffffffffffffffffff1602179055506109ab806100606000396000f3fe6080604052600436106100555760003560e01c806312065fe01461005a5780633308f42d14610085578063481c6a75146100b0578063a97ed232146100db578063e97dcb62146100f2578063f71d96cb146100fc575b600080fd5b34801561006657600080fd5b5061006f610139565b60405161007c91906105eb565b60405180910390f35b34801561009157600080fd5b5061009a6101d0565b6040516100a791906106f6565b60405180910390f35b3480156100bc57600080fd5b506100c561025e565b6040516100d29190610739565b60405180910390f35b3480156100e757600080fd5b506100f0610282565b005b6100fa610439565b005b34801561010857600080fd5b50610123600480360381019061011e9190610785565b6104b2565b60405161013091906107c1565b60405180910390f35b60008060009054906101000a900473ffffffffffffffffffffffffffffffffffffffff1673ffffffffffffffffffffffffffffffffffffffff163373ffffffffffffffffffffffffffffffffffffffff16146101ca576040517f08c379a00000000000000000000000000000000000000000000000000000000081526004016101c190610839565b60405180910390fd5b47905090565b6060600180548060200260200160405190810160405280929190818152602001828054801561025457602002820191906000526020600020905b8160009054906101000a900473ffffffffffffffffffffffffffffffffffffffff1673ffffffffffffffffffffffffffffffffffffffff168152602001906001019080831161020a575b5050505050905090565b60008054906101000a900473ffffffffffffffffffffffffffffffffffffffff1681565b60008054906101000a900473ffffffffffffffffffffffffffffffffffffffff1673ffffffffffffffffffffffffffffffffffffffff163373ffffffffffffffffffffffffffffffffffffffff1614610310576040517f08c379a000000000000000000000000000000000000000000000000000000000815260040161030790610839565b60405180910390fd5b6000600180549050101561032357600080fd5b600061032d6104f1565b9050600080600180549050836103439190610888565b905060018181548110610359576103586108b9565b5b9060005260206000200160009054906101000a900473ffffffffffffffffffffffffffffffffffffffff1691508173ffffffffffffffffffffffffffffffffffffffff166108fc6103a8610139565b9081150290604051600060405180830381858888f193505050501580156103d3573d6000803e3d6000fd5b50600067ffffffffffffffff8111156103ef576103ee6108e8565b5b60405190808252806020026020018201604052801561041d5781602001602082028036833780820191505090505b506001908051906020019061043392919061052b565b50505050565b670de0b6b3a7640000341461044d57600080fd5b6001339080600181540180825580915050600190039060005260206000200160009091909190916101000a81548173ffffffffffffffffffffffffffffffffffffffff021916908373ffffffffffffffffffffffffffffffffffffffff160217905550565b600181815481106104c257600080fd5b906000526020600020016000915054906101000a900473ffffffffffffffffffffffffffffffffffffffff1681565b6000444260018054905060405160200161050d93929190610938565b6040516020818303038152906040528051906020012060001c905090565b8280548282559060005260206000209081019282156105a4579160200282015b828111156105a35782518260006101000a81548173ffffffffffffffffffffffffffffffffffffffff021916908373ffffffffffffffffffffffffffffffffffffffff1602179055509160200191906001019061054b565b5b5090506105b191906105b5565b5090565b5b808211156105ce5760008160009055506001016105b6565b5090565b6000819050919050565b6105e5816105d2565b82525050565b600060208201905061060060008301846105dc565b92915050565b600081519050919050565b600082825260208201905092915050565b6000819050602082019050919050565b600073ffffffffffffffffffffffffffffffffffffffff82169050919050565b600061065d82610632565b9050919050565b61066d81610652565b82525050565b600061067f8383610664565b60208301905092915050565b6000602082019050919050565b60006106a382610606565b6106ad8185610611565b93506106b883610622565b8060005b838110156106e95781516106d08882610673565b97506106db8361068b565b9250506001810190506106bc565b5085935050505092915050565b600060208201905081810360008301526107108184610698565b905092915050565b600061072382610632565b9050919050565b61073381610718565b82525050565b600060208201905061074e600083018461072a565b92915050565b600080fd5b610762816105d2565b811461076d57600080fd5b50565b60008135905061077f81610759565b92915050565b60006020828403121561079b5761079a610754565b5b60006107a984828501610770565b91505092915050565b6107bb81610652565b82525050565b60006020820190506107d660008301846107b2565b92915050565b600082825260208201905092915050565b7f4e6f74204d616e61676572000000000000000000000000000000000000000000600082015250565b6000610823600b836107dc565b915061082e826107ed565b602082019050919050565b6000602082019050818103600083015261085281610816565b9050919050565b7f4e487b7100000000000000000000000000000000000000000000000000000000600052601260045260246000fd5b6000610893826105d2565b915061089e836105d2565b9250826108ae576108ad610859565b5b828206905092915050565b7f4e487b7100000000000000000000000000000000000000000000000000000000600052603260045260246000fd5b7f4e487b7100000000000000000000000000000000000000000000000000000000600052604160045260246000fd5b6000819050919050565b61093261092d826105d2565b610917565b82525050565b60006109448286610921565b6020820191506109548285610921565b6020820191506109648284610921565b60208201915081905094935050505056fea264697066735822122093cdbfe8d2866e25568547b37c048a1e37b1c7842aa6ae8b63b0512a80856ba564736f6c63430008120033",
  "linkReferences": {},
  "deployedLinkReferences": {}
}